{
  "contractName": "ERC165",
  "abi": [
    {
      "inputs": [
        {
          "internalType": "bytes4",
          "name": "interfaceId",
          "type": "bytes4"
        }
      ],
      "name": "supportsInterface",
      "outputs": [
        {
          "internalType": "bool",
          "name": "",
          "type": "bool"
        }
      ],
      "stateMutability": "view",
      "type": "function"
    }
  ],
  "bytecode": "0x608060405234801561001057600080fd5b5060c78061001f6000396000f3fe6080604052348015600f57600080fd5b506004361060285760003560e01c806301ffc9a714602d575b600080fd5b604e60383660046062565b6001600160e01b0319166301ffc9a760e01b1490565b604051901515815260200160405180910390f35b600060208284031215607357600080fd5b81356001600160e01b031981168114608a57600080fd5b939250505056fea26469706673582212204bdc9f4bb89416e12470202ade33a54e8e1f01c99abacd676208cc385b60177664736f6c63430008110033",
  "immutableReferences": {},
  "source": "// SPDX-License-Identifier: MIT\r\n// pragma solidity >=0.4.22 <0.9.0;\r\n pragma solidity ^0.8.0;\r\n\r\nimport \"./IERC165.sol\";\r\n\r\ncontract ERC165 is IERC165 {\r\n\r\n    function supportsInterface(bytes4 interfaceId) public view virtual override returns (bool) {\r\n        return interfaceId == type(IERC165).interfaceId;\r\n    }\r\n}",
  "sourcePath": "C:\\Users\\Sina\\Desktop\\Code\\NFT\\Contract\\contracts\\ERC165.sol",
  "compiler": {
    "name": "solc",
    "version": "0.8.17+commit.8df45f5f.Emscripten.clang"
  },
  "schemaVersion": "3.4.11",
  "updatedAt": "2022-12-19T09:46:44.241Z",
  "devdoc": {
    "kind": "dev",
    "methods": {},
    "version": 1
  },
  "userdoc": {
    "kind": "user",
    "methods": {},
    "version": 1
  }
}