{
  "contractName": "ERC721",
  "abi": [
    {
      "inputs": [
        {
          "internalType": "string",
          "name": "name_",
          "type": "string"
        },
        {
          "internalType": "string",
          "name": "symbol_",
          "type": "string"
        }
      ],
      "stateMutability": "nonpayable",
      "type": "constructor"
    },
    {
      "anonymous": false,
      "inputs": [
        {
          "indexed": true,
          "internalType": "address",
          "name": "owner",
          "type": "address"
        },
        {
          "indexed": true,
          "internalType": "address",
          "name": "approved",
          "type": "address"
        },
        {
          "indexed": true,
          "internalType": "uint256",
          "name": "tokenId",
          "type": "uint256"
        }
      ],
      "name": "Approval",
      "type": "event"
    },
    {
      "anonymous": false,
      "inputs": [
        {
          "indexed": true,
          "internalType": "address",
          "name": "owner",
          "type": "address"
        },
        {
          "indexed": true,
          "internalType": "address",
          "name": "operator",
          "type": "address"
        },
        {
          "indexed": false,
          "internalType": "bool",
          "name": "approved",
          "type": "bool"
        }
      ],
      "name": "ApprovalForAll",
      "type": "event"
    },
    {
      "anonymous": false,
      "inputs": [
        {
          "indexed": true,
          "internalType": "address",
          "name": "from",
          "type": "address"
        },
        {
          "indexed": true,
          "internalType": "address",
          "name": "to",
          "type": "address"
        },
        {
          "indexed": true,
          "internalType": "uint256",
          "name": "tokenId",
          "type": "uint256"
        }
      ],
      "name": "Transfer",
      "type": "event"
    },
    {
      "inputs": [],
      "name": "tokenIdCounter",
      "outputs": [
        {
          "internalType": "uint256",
          "name": "",
          "type": "uint256"
        }
      ],
      "stateMutability": "view",
      "type": "function",
      "constant": true
    },
    {
      "inputs": [
        {
          "internalType": "bytes4",
          "name": "interfaceId",
          "type": "bytes4"
        }
      ],
      "name": "supportsInterface",
      "outputs": [
        {
          "internalType": "bool",
          "name": "",
          "type": "bool"
        }
      ],
      "stateMutability": "view",
      "type": "function",
      "constant": true
    },
    {
      "inputs": [
        {
          "internalType": "address",
          "name": "owner",
          "type": "address"
        }
      ],
      "name": "balanceOf",
      "outputs": [
        {
          "internalType": "uint256",
          "name": "",
          "type": "uint256"
        }
      ],
      "stateMutability": "view",
      "type": "function",
      "constant": true
    },
    {
      "inputs": [
        {
          "internalType": "uint256",
          "name": "tokenId",
          "type": "uint256"
        }
      ],
      "name": "ownerOf",
      "outputs": [
        {
          "internalType": "address",
          "name": "",
          "type": "address"
        }
      ],
      "stateMutability": "view",
      "type": "function",
      "constant": true
    },
    {
      "inputs": [],
      "name": "name",
      "outputs": [
        {
          "internalType": "string",
          "name": "",
          "type": "string"
        }
      ],
      "stateMutability": "view",
      "type": "function",
      "constant": true
    },
    {
      "inputs": [],
      "name": "symbol",
      "outputs": [
        {
          "internalType": "string",
          "name": "",
          "type": "string"
        }
      ],
      "stateMutability": "view",
      "type": "function",
      "constant": true
    },
    {
      "inputs": [
        {
          "internalType": "uint256",
          "name": "tokenId",
          "type": "uint256"
        }
      ],
      "name": "tokenURI",
      "outputs": [
        {
          "internalType": "string",
          "name": "",
          "type": "string"
        }
      ],
      "stateMutability": "view",
      "type": "function",
      "constant": true
    },
    {
      "inputs": [
        {
          "internalType": "address",
          "name": "owner",
          "type": "address"
        },
        {
          "internalType": "address",
          "name": "operator",
          "type": "address"
        }
      ],
      "name": "isApprovedForAll",
      "outputs": [
        {
          "internalType": "bool",
          "name": "",
          "type": "bool"
        }
      ],
      "stateMutability": "view",
      "type": "function",
      "constant": true
    },
    {
      "inputs": [
        {
          "internalType": "address",
          "name": "to",
          "type": "address"
        },
        {
          "internalType": "uint256",
          "name": "tokenId",
          "type": "uint256"
        }
      ],
      "name": "approve",
      "outputs": [],
      "stateMutability": "nonpayable",
      "type": "function"
    },
    {
      "inputs": [
        {
          "internalType": "uint256",
          "name": "tokenId",
          "type": "uint256"
        }
      ],
      "name": "getApproved",
      "outputs": [
        {
          "internalType": "address",
          "name": "",
          "type": "address"
        }
      ],
      "stateMutability": "view",
      "type": "function",
      "constant": true
    },
    {
      "inputs": [
        {
          "internalType": "address",
          "name": "operator",
          "type": "address"
        },
        {
          "internalType": "bool",
          "name": "approved",
          "type": "bool"
        }
      ],
      "name": "setApprovalForAll",
      "outputs": [],
      "stateMutability": "nonpayable",
      "type": "function"
    },
    {
      "inputs": [
        {
          "internalType": "address",
          "name": "from",
          "type": "address"
        },
        {
          "internalType": "address",
          "name": "to",
          "type": "address"
        },
        {
          "internalType": "uint256",
          "name": "tokenId",
          "type": "uint256"
        }
      ],
      "name": "transferFrom",
      "outputs": [],
      "stateMutability": "nonpayable",
      "type": "function"
    },
    {
      "inputs": [
        {
          "internalType": "address",
          "name": "from",
          "type": "address"
        },
        {
          "internalType": "address",
          "name": "to",
          "type": "address"
        },
        {
          "internalType": "uint256",
          "name": "tokenId",
          "type": "uint256"
        }
      ],
      "name": "safeTransferFrom",
      "outputs": [],
      "stateMutability": "nonpayable",
      "type": "function"
    },
    {
      "inputs": [
        {
          "internalType": "address",
          "name": "from",
          "type": "address"
        },
        {
          "internalType": "address",
          "name": "to",
          "type": "address"
        },
        {
          "internalType": "uint256",
          "name": "tokenId",
          "type": "uint256"
        },
        {
          "internalType": "bytes",
          "name": "_data",
          "type": "bytes"
        }
      ],
      "name": "safeTransferFrom",
      "outputs": [],
      "stateMutability": "nonpayable",
      "type": "function"
    },
    {
      "inputs": [
        {
          "internalType": "address",
          "name": "to",
          "type": "address"
        },
        {
          "internalType": "string",
          "name": "_hash",
          "type": "string"
        }
      ],
      "name": "mint",
      "outputs": [],
      "stateMutability": "nonpayable",
      "type": "function"
    },
    {
      "inputs": [
        {
          "internalType": "uint256",
          "name": "tokenId",
          "type": "uint256"
        }
      ],
      "name": "burn",
      "outputs": [],
      "stateMutability": "nonpayable",
      "type": "function"
    },
    {
      "inputs": [
        {
          "internalType": "uint256",
          "name": "tokenId",
          "type": "uint256"
        }
      ],
      "name": "showNft",
      "outputs": [
        {
          "internalType": "string",
          "name": "",
          "type": "string"
        }
      ],
      "stateMutability": "view",
      "type": "function",
      "constant": true
    }
  ],
  "bytecode": "0x60806040523480156200001157600080fd5b50604051620019f2380380620019f283398101604081905262000034916200011f565b600062000042838262000218565b50600162000051828262000218565b505050620002e4565b634e487b7160e01b600052604160045260246000fd5b600082601f8301126200008257600080fd5b81516001600160401b03808211156200009f576200009f6200005a565b604051601f8301601f19908116603f01168101908282118183101715620000ca57620000ca6200005a565b81604052838152602092508683858801011115620000e757600080fd5b600091505b838210156200010b5785820183015181830184015290820190620000ec565b600093810190920192909252949350505050565b600080604083850312156200013357600080fd5b82516001600160401b03808211156200014b57600080fd5b620001598683870162000070565b935060208501519150808211156200017057600080fd5b506200017f8582860162000070565b9150509250929050565b600181811c908216806200019e57607f821691505b602082108103620001bf57634e487b7160e01b600052602260045260246000fd5b50919050565b601f8211156200021357600081815260208120601f850160051c81016020861015620001ee5750805b601f850160051c820191505b818110156200020f57828155600101620001fa565b5050505b505050565b81516001600160401b038111156200023457620002346200005a565b6200024c8162000245845462000189565b84620001c5565b602080601f8311600181146200028457600084156200026b5750858301515b600019600386901b1c1916600185901b1785556200020f565b600085815260208120601f198616915b82811015620002b55788860151825594840194600190910190840162000294565b5085821015620002d45787850151600019600388901b60f8161c191681555b5050505050600190811b01905550565b6116fe80620002f46000396000f3fe608060405234801561001057600080fd5b506004361061010b5760003560e01c806370a08231116100a2578063b88d4fde11610071578063b88d4fde1461021e578063b9101d1314610231578063c87b56dd14610244578063d0def52114610257578063e985e9c51461026a57600080fd5b806370a08231146101d957806395d89b41146101fa57806398bdf6f514610202578063a22cb4651461020b57600080fd5b806323b872dd116100de57806323b872dd1461018d57806342842e0e146101a057806342966c68146101b35780636352211e146101c657600080fd5b806301ffc9a71461011057806306fdde0314610138578063081812fc1461014d578063095ea7b314610178575b600080fd5b61012361011e36600461109c565b61027d565b60405190151581526020015b60405180910390f35b6101406102cf565b60405161012f9190611109565b61016061015b36600461111c565b610361565b6040516001600160a01b03909116815260200161012f565b61018b610186366004611151565b6103fb565b005b61018b61019b36600461117b565b6104c3565b61018b6101ae36600461117b565b6104f5565b61018b6101c136600461111c565b610510565b6101606101d436600461111c565b61058a565b6101ec6101e73660046111b7565b6105ac565b60405190815260200161012f565b6101406105dd565b6101ec60075481565b61018b6102193660046111d2565b6105ec565b61018b61022c36600461129a565b6105fb565b61014061023f36600461111c565b610633565b61014061025236600461111c565b6106d5565b61018b610265366004611316565b6107bd565b610123610278366004611378565b6107cb565b60006001600160e01b031982166380ac58cd60e01b14806102ae57506001600160e01b03198216635b5e139f60e01b145b806102c957506301ffc9a760e01b6001600160e01b03198316145b92915050565b6060600080546102de906113ab565b80601f016020809104026020016040519081016040528092919081815260200182805461030a906113ab565b80156103575780601f1061032c57610100808354040283529160200191610357565b820191906000526020600020905b81548152906001019060200180831161033a57829003601f168201915b5050505050905090565b6000818152600260205260408120546001600160a01b03166103df5760405162461bcd60e51b815260206004820152602c60248201527f4552433732313a20617070726f76656420717565727920666f72206e6f6e657860448201526b34b9ba32b73a103a37b5b2b760a11b60648201526084015b60405180910390fd5b506000908152600460205260409020546001600160a01b031690565b60006104068261058a565b9050806001600160a01b0316836001600160a01b03160361042657600080fd5b336001600160a01b0382161480610442575061044281336107cb565b6104b45760405162461bcd60e51b815260206004820152603860248201527f4552433732313a20617070726f76652063616c6c6572206973206e6f74206f7760448201527f6e6572206e6f7220617070726f76656420666f7220616c6c000000000000000060648201526084016103d6565b6104be83836107f9565b505050565b6104ce335b82610867565b6104ea5760405162461bcd60e51b81526004016103d6906113e5565b6104be83838361093e565b6104be838383604051806020016040528060008152506105fb565b610519336104c8565b61057e5760405162461bcd60e51b815260206004820152603060248201527f4552433732314275726e61626c653a2063616c6c6572206973206e6f74206f7760448201526f1b995c881b9bdc88185c1c1c9bdd995960821b60648201526084016103d6565b61058781610ada565b50565b6000818152600260205260408120546001600160a01b0316806102c957600080fd5b60006001600160a01b0382166105c157600080fd5b506001600160a01b031660009081526003602052604090205490565b6060600180546102de906113ab565b6105f7338383610b8b565b5050565b6106053383610867565b6106215760405162461bcd60e51b81526004016103d6906113e5565b61062d84848484610c59565b50505050565b6000818152600660205260409020805460609190610650906113ab565b80601f016020809104026020016040519081016040528092919081815260200182805461067c906113ab565b80156106c95780601f1061069e576101008083540402835291602001916106c9565b820191906000526020600020905b8154815290600101906020018083116106ac57829003601f168201915b50505050509050919050565b6000818152600260205260409020546060906001600160a01b03166107545760405162461bcd60e51b815260206004820152602f60248201527f4552433732314d657461646174613a2055524920717565727920666f72206e6f60448201526e3732bc34b9ba32b73a103a37b5b2b760891b60648201526084016103d6565b600061076b60408051602081019091526000815290565b9050600081511161078b57604051806020016040528060008152506107b6565b8061079584610c8c565b6040516020016107a6929190611436565b6040516020818303038152906040525b9392505050565b6007546104be838284610d8d565b6001600160a01b03918216600090815260056020908152604080832093909416825291909152205460ff1690565b600081815260046020526040902080546001600160a01b0319166001600160a01b038416908117909155819061082e8261058a565b6001600160a01b03167f8c5be1e5ebec7d5bd14f71427d1e84f3dd0314c0f7b2291e5b200ac8c7c3b92560405160405180910390a45050565b6000818152600260205260408120546001600160a01b03166108e05760405162461bcd60e51b815260206004820152602c60248201527f4552433732313a206f70657261746f7220717565727920666f72206e6f6e657860448201526b34b9ba32b73a103a37b5b2b760a11b60648201526084016103d6565b60006108eb8361058a565b9050806001600160a01b0316846001600160a01b031614806109265750836001600160a01b031661091b84610361565b6001600160a01b0316145b80610936575061093681856107cb565b949350505050565b826001600160a01b03166109518261058a565b6001600160a01b0316146109b55760405162461bcd60e51b815260206004820152602560248201527f4552433732313a207472616e736665722066726f6d20696e636f72726563742060448201526437bbb732b960d91b60648201526084016103d6565b6001600160a01b038216610a175760405162461bcd60e51b8152602060048201526024808201527f4552433732313a207472616e7366657220746f20746865207a65726f206164646044820152637265737360e01b60648201526084016103d6565b610a226000826107f9565b6001600160a01b0383166000908152600360205260408120805460019290610a4b90849061147b565b90915550506001600160a01b0382166000908152600360205260408120805460019290610a7990849061148e565b909155505060008181526002602052604080822080546001600160a01b0319166001600160a01b0386811691821790925591518493918716917fddf252ad1be2c89b69c2b068fc378daa952ba7f163c4a11628f55a4df523b3ef91a4505050565b6000610ae58261058a565b9050610af26000836107f9565b6001600160a01b0381166000908152600360205260408120805460019290610b1b90849061147b565b9091555050600082815260026020908152604080832080546001600160a01b031916905560069091528120610b4f91611038565b60405182906000906001600160a01b038416907fddf252ad1be2c89b69c2b068fc378daa952ba7f163c4a11628f55a4df523b3ef908390a45050565b816001600160a01b0316836001600160a01b031603610bec5760405162461bcd60e51b815260206004820152601960248201527f4552433732313a20617070726f766520746f2063616c6c65720000000000000060448201526064016103d6565b6001600160a01b03838116600081815260056020908152604080832094871680845294825291829020805460ff191686151590811790915591519182527f17307eab39ab6107e8899845ad3d59bd9653f200f220920489ca2b5937696c31910160405180910390a3505050565b610c6484848461093e565b610c7084848484610da8565b61062d5760405162461bcd60e51b81526004016103d6906114a1565b606081600003610cb35750506040805180820190915260018152600360fc1b602082015290565b8160005b8115610cdd5780610cc7816114f3565b9150610cd69050600a83611522565b9150610cb7565b60008167ffffffffffffffff811115610cf857610cf861120e565b6040519080825280601f01601f191660200182016040528015610d22576020820181803683370190505b5090505b841561093657610d3760018361147b565b9150610d44600a86611536565b610d4f90603061148e565b60f81b818381518110610d6457610d6461154a565b60200101906001600160f81b031916908160001a905350610d86600a86611522565b9450610d26565b6104be83838360405180602001604052806000815250610ea9565b60006001600160a01b0384163b15610e9e57604051630a85bd0160e11b81526001600160a01b0385169063150b7a0290610dec903390899088908890600401611560565b6020604051808303816000875af1925050508015610e27575060408051601f3d908101601f19168201909252610e249181019061159d565b60015b610e84573d808015610e55576040519150601f19603f3d011682016040523d82523d6000602084013e610e5a565b606091505b508051600003610e7c5760405162461bcd60e51b81526004016103d6906114a1565b805181602001fd5b6001600160e01b031916630a85bd0160e11b149050610936565b506001949350505050565b610eb4848484610ec1565b610c706000858584610da8565b6001600160a01b038316610f175760405162461bcd60e51b815260206004820181905260248201527f4552433732313a206d696e7420746f20746865207a65726f206164647265737360448201526064016103d6565b6000828152600260205260409020546001600160a01b031615610f7c5760405162461bcd60e51b815260206004820152601c60248201527f4552433732313a20746f6b656e20616c7265616479206d696e7465640000000060448201526064016103d6565b6001600160a01b0383166000908152600360205260408120805460019290610fa590849061148e565b9091555050600082815260026020908152604080832080546001600160a01b0319166001600160a01b03881617905560069091529020610fe58282611608565b5060078054906000610ff6836114f3565b909155505060405182906001600160a01b038516906000907fddf252ad1be2c89b69c2b068fc378daa952ba7f163c4a11628f55a4df523b3ef908290a4505050565b508054611044906113ab565b6000825580601f10611054575050565b601f01602090049060005260206000209081019061058791905b80821115611082576000815560010161106e565b5090565b6001600160e01b03198116811461058757600080fd5b6000602082840312156110ae57600080fd5b81356107b681611086565b60005b838110156110d45781810151838201526020016110bc565b50506000910152565b600081518084526110f58160208601602086016110b9565b601f01601f19169290920160200192915050565b6020815260006107b660208301846110dd565b60006020828403121561112e57600080fd5b5035919050565b80356001600160a01b038116811461114c57600080fd5b919050565b6000806040838503121561116457600080fd5b61116d83611135565b946020939093013593505050565b60008060006060848603121561119057600080fd5b61119984611135565b92506111a760208501611135565b9150604084013590509250925092565b6000602082840312156111c957600080fd5b6107b682611135565b600080604083850312156111e557600080fd5b6111ee83611135565b91506020830135801515811461120357600080fd5b809150509250929050565b634e487b7160e01b600052604160045260246000fd5b600067ffffffffffffffff8084111561123f5761123f61120e565b604051601f8501601f19908116603f011681019082821181831017156112675761126761120e565b8160405280935085815286868601111561128057600080fd5b858560208301376000602087830101525050509392505050565b600080600080608085870312156112b057600080fd5b6112b985611135565b93506112c760208601611135565b925060408501359150606085013567ffffffffffffffff8111156112ea57600080fd5b8501601f810187136112fb57600080fd5b61130a87823560208401611224565b91505092959194509250565b6000806040838503121561132957600080fd5b61133283611135565b9150602083013567ffffffffffffffff81111561134e57600080fd5b8301601f8101851361135f57600080fd5b61136e85823560208401611224565b9150509250929050565b6000806040838503121561138b57600080fd5b61139483611135565b91506113a260208401611135565b90509250929050565b600181811c908216806113bf57607f821691505b6020821081036113df57634e487b7160e01b600052602260045260246000fd5b50919050565b60208082526031908201527f4552433732313a207472616e736665722063616c6c6572206973206e6f74206f6040820152701ddb995c881b9bdc88185c1c1c9bdd9959607a1b606082015260800190565b600083516114488184602088016110b9565b83519083019061145c8183602088016110b9565b01949350505050565b634e487b7160e01b600052601160045260246000fd5b818103818111156102c9576102c9611465565b808201808211156102c9576102c9611465565b60208082526032908201527f4552433732313a207472616e7366657220746f206e6f6e20455243373231526560408201527131b2b4bb32b91034b6b83632b6b2b73a32b960711b606082015260800190565b60006001820161150557611505611465565b5060010190565b634e487b7160e01b600052601260045260246000fd5b6000826115315761153161150c565b500490565b6000826115455761154561150c565b500690565b634e487b7160e01b600052603260045260246000fd5b6001600160a01b0385811682528416602082015260408101839052608060608201819052600090611593908301846110dd565b9695505050505050565b6000602082840312156115af57600080fd5b81516107b681611086565b601f8211156104be57600081815260208120601f850160051c810160208610156115e15750805b601f850160051c820191505b81811015611600578281556001016115ed565b505050505050565b815167ffffffffffffffff8111156116225761162261120e565b6116368161163084546113ab565b846115ba565b602080601f83116001811461166b57600084156116535750858301515b600019600386901b1c1916600185901b178555611600565b600085815260208120601f198616915b8281101561169a5788860151825594840194600190910190840161167b565b50858210156116b85787850151600019600388901b60f8161c191681555b5050505050600190811b0190555056fea2646970667358221220cfb9cd37b0420ab78031dd63d15271918d88d453ae3eb09075c2245541a3399764736f6c63430008110033",
  "immutableReferences": {},
  "source": "// SPDX-License-Identifier: MIT\r\n// pragma solidity >=0.4.22 <0.9.0;\r\n pragma solidity ^0.8.0;\r\n\r\nimport \"./IERC721.sol\";\r\nimport \"./IERC721Receiver.sol\";\r\nimport \"./IERC721Metadata.sol\";\r\nimport \"./Address.sol\";\r\nimport \"./Context.sol\";\r\nimport \"./Strings.sol\";\r\nimport \"./ERC165.sol\";\r\n\r\ncontract ERC721 is Context, ERC165, IERC721, IERC721Metadata{\r\n\r\n    using Address for address;\r\n    using Strings for uint256;\r\n\r\n\r\n    string private _name;\r\n    string private _symbol;\r\n\r\n\r\n    mapping(uint256 => address) private _owners;\r\n    mapping(address => uint256) private _balances;\r\n    mapping(uint256 => address) private _tokenApprovals;\r\n    mapping(address => mapping(address => bool)) private _operatorApprovals;\r\n    mapping (uint256 => string) private _Hash;\r\n    uint256 public tokenIdCounter;\r\n\r\n    constructor(string memory name_, string memory symbol_) {\r\n        _name = name_;\r\n        _symbol = symbol_;\r\n    }\r\n\r\n\r\n    function supportsInterface(bytes4 interfaceId) public view virtual override(ERC165, IERC165) returns (bool) {\r\n        return\r\n            interfaceId == type(IERC721).interfaceId ||\r\n            interfaceId == type(IERC721Metadata).interfaceId ||\r\n            super.supportsInterface(interfaceId);\r\n    }\r\n\r\n\r\n    function balanceOf(address owner) public view virtual override returns (uint256) {\r\n        require(owner != address(0));\r\n        return _balances[owner];\r\n    }\r\n\r\n\r\n    function ownerOf(uint256 tokenId) public view virtual override returns (address) {\r\n        address owner = _owners[tokenId];\r\n        require(owner != address(0));\r\n        return owner;\r\n    }\r\n\r\n\r\n    function name() public view virtual override returns (string memory) {\r\n        return _name;\r\n    }\r\n\r\n    function symbol() public view virtual override returns (string memory) {\r\n        return _symbol;\r\n    }\r\n\r\n    function _exists(uint256 tokenId) internal view virtual returns (bool) {\r\n        return _owners[tokenId] != address(0);\r\n    }\r\n\r\n    function tokenURI(uint256 tokenId) public view virtual override returns (string memory) {\r\n        require(_exists(tokenId), \"ERC721Metadata: URI query for nonexistent token\");\r\n\r\n        string memory baseURI = _baseURI();\r\n        return bytes(baseURI).length > 0 ? string(abi.encodePacked(baseURI, tokenId.toString())) : \"\";\r\n    }\r\n\r\n    function _baseURI() internal view virtual returns (string memory) {\r\n        return \"\";\r\n    }\r\n\r\n    function isApprovedForAll(address owner, address operator) public view virtual override returns (bool) {\r\n        return _operatorApprovals[owner][operator];\r\n    }\r\n\r\n    function approve(address to, uint256 tokenId) public virtual override {\r\n        address owner = ERC721.ownerOf(tokenId);\r\n        require(to != owner);\r\n\r\n        require(\r\n            _msgSender() == owner || isApprovedForAll(owner, _msgSender()),\r\n            \"ERC721: approve caller is not owner nor approved for all\"\r\n        );\r\n\r\n        _approve(to, tokenId);\r\n    }\r\n\r\n    function _approve(address to, uint256 tokenId) internal virtual {\r\n        _tokenApprovals[tokenId] = to;\r\n        emit Approval(ERC721.ownerOf(tokenId), to, tokenId);\r\n    }\r\n\r\n    function getApproved(uint256 tokenId) public view virtual override returns (address) {\r\n        require(_exists(tokenId), \"ERC721: approved query for nonexistent token\");\r\n\r\n        return _tokenApprovals[tokenId];\r\n    }\r\n\r\n\r\n    function setApprovalForAll(address operator, bool approved) public virtual override {\r\n        _setApprovalForAll(_msgSender(), operator, approved);\r\n    }\r\n\r\n    function _setApprovalForAll(\r\n        address owner,\r\n        address operator,\r\n        bool approved\r\n    ) internal virtual {\r\n        require(owner != operator, \"ERC721: approve to caller\");\r\n        _operatorApprovals[owner][operator] = approved;\r\n        emit ApprovalForAll(owner, operator, approved);\r\n    }\r\n\r\n    function transferFrom(\r\n        address from,\r\n        address to,\r\n        uint256 tokenId\r\n    ) public virtual override {\r\n      \r\n        require(_isApprovedOrOwner(_msgSender(), tokenId), \"ERC721: transfer caller is not owner nor approved\");\r\n\r\n        _transfer(from, to, tokenId);\r\n    }\r\n\r\n\r\n    function _isApprovedOrOwner(address spender, uint256 tokenId) internal view virtual returns (bool) {\r\n        require(_exists(tokenId), \"ERC721: operator query for nonexistent token\");\r\n        address owner = ERC721.ownerOf(tokenId);\r\n        return (spender == owner || getApproved(tokenId) == spender || isApprovedForAll(owner, spender));\r\n    }\r\n\r\n    function _transfer(\r\n        address from,\r\n        address to,\r\n        uint256 tokenId\r\n    ) internal virtual {\r\n        require(ERC721.ownerOf(tokenId) == from, \"ERC721: transfer from incorrect owner\");\r\n        require(to != address(0), \"ERC721: transfer to the zero address\");\r\n\r\n        // Clear approvals from the previous owner\r\n        _approve(address(0), tokenId);\r\n\r\n        _balances[from] -= 1;\r\n        _balances[to] += 1;\r\n        _owners[tokenId] = to;\r\n\r\n        emit Transfer(from, to, tokenId);\r\n\r\n    }\r\n\r\n    function safeTransferFrom(\r\n        address from,\r\n        address to,\r\n        uint256 tokenId\r\n    ) public virtual override {\r\n        safeTransferFrom(from, to, tokenId, \"\");\r\n    }\r\n\r\n    function safeTransferFrom(\r\n        address from,\r\n        address to,\r\n        uint256 tokenId,\r\n        bytes memory _data\r\n    ) public virtual override {\r\n        require(_isApprovedOrOwner(_msgSender(), tokenId), \"ERC721: transfer caller is not owner nor approved\");\r\n        _safeTransfer(from, to, tokenId, _data);\r\n    }\r\n\r\n    function _safeTransfer(\r\n        address from,\r\n        address to,\r\n        uint256 tokenId,\r\n        bytes memory _data\r\n    ) internal virtual {\r\n        _transfer(from, to, tokenId);\r\n        require(_checkOnERC721Received(from, to, tokenId, _data), \"ERC721: transfer to non ERC721Receiver implementer\");\r\n    }\r\n\r\n    function _checkOnERC721Received(\r\n        address from,\r\n        address to,\r\n        uint256 tokenId,\r\n        bytes memory _data\r\n    ) private returns (bool) {\r\n        if (to.isContract()) {\r\n            try IERC721Receiver(to).onERC721Received(_msgSender(), from, tokenId, _data) returns (bytes4 retval) {\r\n                return retval == IERC721Receiver.onERC721Received.selector;\r\n            } catch (bytes memory reason) {\r\n                if (reason.length == 0) {\r\n                    revert(\"ERC721: transfer to non ERC721Receiver implementer\");\r\n                } else {\r\n                    assembly {\r\n                        revert(add(32, reason), mload(reason))\r\n                    }\r\n                }\r\n            }\r\n        } else {\r\n            return true;\r\n        }\r\n    }\r\n\r\n    function _safeMint(address to, uint256 tokenId, string memory _hash) internal virtual {\r\n        _safeMint(to, tokenId, _hash, \"\");\r\n    }\r\n\r\n    function _safeMint(\r\n        address to,\r\n        uint256 tokenId,\r\n        string memory _hash,\r\n        bytes memory _data\r\n    ) internal virtual {\r\n        _mint(to, tokenId, _hash);\r\n        require(\r\n            _checkOnERC721Received(address(0), to, tokenId, _data),\r\n            \"ERC721: transfer to non ERC721Receiver implementer\"\r\n        );\r\n    }\r\n\r\n    function _mint(address to, uint256 tokenId, string memory _hash) internal virtual {\r\n        require(to != address(0), \"ERC721: mint to the zero address\");\r\n        require(!_exists(tokenId), \"ERC721: token already minted\");\r\n\r\n        _balances[to] += 1;\r\n        _owners[tokenId] = to;\r\n        _Hash[tokenId] = _hash;\r\n        tokenIdCounter++;\r\n        emit Transfer(address(0), to, tokenId);\r\n    }\r\n\r\n    function mint(address to, string memory _hash) public virtual {\r\n        uint256 tokenId = tokenIdCounter;\r\n        _safeMint(to, tokenId, _hash);\r\n    }\r\n\r\n    function _burn(uint256 tokenId) internal virtual {\r\n        address owner = ERC721.ownerOf(tokenId);\r\n\r\n        // Clear approvals\r\n        _approve(address(0), tokenId);\r\n\r\n        _balances[owner] -= 1;\r\n        delete _owners[tokenId];\r\n        delete _Hash[tokenId];\r\n\r\n        emit Transfer(owner, address(0), tokenId);\r\n\r\n    }\r\n\r\n    function burn(uint256 tokenId) public virtual {\r\n\r\n        require(_isApprovedOrOwner(_msgSender(), tokenId), \"ERC721Burnable: caller is not owner nor approved\");\r\n        _burn(tokenId);\r\n    }\r\n\r\n    function showNft(uint256 tokenId) public view returns (string memory){\r\n        return _Hash[tokenId];\r\n    }\r\n}\r\n",
  "sourcePath": "C:\\Users\\Sina\\Desktop\\Code\\NFT\\Contract\\contracts\\ERC721.sol",
  "compiler": {
    "name": "solc",
    "version": "0.8.17+commit.8df45f5f.Emscripten.clang"
  },
  "schemaVersion": "3.4.11",
  "updatedAt": "2022-12-19T09:47:03.021Z",
  "networkType": "ethereum",
  "devdoc": {
    "kind": "dev",
    "methods": {},
    "version": 1
  },
  "userdoc": {
    "kind": "user",
    "methods": {},
    "version": 1
  }
}